:020000040800F2
:10000000A80C002045010008A9190008C517000820
:10001000A5190008790400089D1C000800000000D4
:10002000000000000000000000000000051A0008A9
:100030008D0400080000000031020008FD010008E6
:100040005F0100085F0100085F0100085F01000810
:100050005F0100085F0100085F0100085F01000800
:100060005F0100085F0100085F0100085F010008F0
:100070005F0100085F0100085F0100087D040008BF
:100080005F0100085F0100085F0100085F010008D0
:100090005F0100085F0100085F0100085F010008C0
:1000A0005F0100085F0100085F0100085F010008B0
:1000B0005F0100085F0100085F0100085F010008A0
:1000C0005F0100085F0100085F0100085F01000890
:1000D0005F0100088D1C00085F0100085F01000837
:1000E0005F0100085F0100085F0100085F01000870
:1000F0005F0100085F0100085F0100085F01000860
:100100005F0100085F0100085F0100085F0100084F
:100110005F0100085F0100085F0100085F0100083F
:100120005F0100085F0100085F0100085F0100082F
:10013000DFF80CD000F06AF900480047012B0008F6
:10014000A80C00200648804706480047FEE7FEE767
:10015000FEE7FEE7FEE7FEE7FEE7FEE7FEE7FEE777
:10016000951A00083101000800000000000000009E
:100170002C000020A80C002000000008EC0000204B
:1001800000000008001000E07F3801000000FF4080
:1001900072B65FF824005FF8241001F104010160D9
:1001A0004FF0E0205FF83010C0F8081D5FF8340011
:1001B0005FF83410096801605FF83800016841F0A9
:1001C000010101604FF0E0205FF8441041614FF001
:1001D000070101614FF00001C0F8181D4FF07F4189
:1001E000C0F81C1D5FF85C10C0F8201D7047FEE7CA
:1001F000FEE7FEE701B5BDE80140704701B500F03C
:1002000087F8BDE801407047FEE7FEE70000000008
:100210004FF00000224A106062B64FF080504FF05D
:10022000E021C1F8040DBFF34F8FBFF36F8FFEE7DE
:100230001C481D4A4FF00003016869B10360EFF3E9
:10024000098C2CE9F00F194C4CF804ED2568C1F825
:1002500008C00DB18D61236072B6116889B101606B
:1002600062B64F68124C8D6907F101074F60256037
:10027000D1F808C05CF804EBBCE8F00F8CF30988F7
:10028000704772B61168016009B962B6F9E74FF0BC
:1002900000674FF0E028C8F8047D62B6E1E700BFD0
:1002A0006000002050000020540000205406002070
:1002B00054060020000000000000000000000000C4
:1002C000026922F00702A2F144026FF002031360F8
:1002D0004FF0000353609360D360136153619361E7
:1002E000C368D3614FF00003136253629362D36219
:1002F000136353634FF0FF339363D1634FF0807305
:1003000013648260704700000000000000000000DD
:100310002649086800F101000860254B1A68002A88
:1003200008D0A2F101021A60002A03D1214B4FF03C
:1003300001001860204908680268002A04D01F4B99
:100340004FF001021A6008E000F104001C4B1A682B
:10035000904201D11B4B186808601B4B1A68002A99
:1003600003D11A49086800281CD02DE9014018491A
:100370000868002801D002F0E7F8164B1A68002A36
:100380000ED002F051F81448016849B913480168C9
:10039000134A136813484FF08052994200D002600C
:1003A000BDE80140BFF34F8F704700BF9C010020A4
:1003B0005406002000010020F8000020FC0000206E
:1003C000880100208C01002000010020FC0000209A
:1003D000FC000020000100206000002050000020F0
:1003E0005400002004ED00E0D2B201E000F8012B3F
:1003F000491EFBD270470022F6E710B513460A46A5
:1004000004461946FFF7F0FF204610BD064C074D85
:1004100006E0E06840F0010394E8070098471034D4
:10042000AC42F6D3FFF788FE342C0008542C0008A9
:10043000B0B5044600688168C90701D10020B0BD8D
:10044000816821F00101816000F0FAFC054600BFDF
:1004500020688068C007F1D000F0F2FC401B032840
:10046000F6D3A06A40F01000A062E06A40F00100FC
:10047000E0620120B0BD0000FEE7000080B540F260
:100480008860C2F2000000F00DFA80BD70470000E5
:100490007047000070B581B00022009290F82420CF
:1004A000012A01D1022177E04A680123062A80F857
:1004B000243005D803686FF0040C03F1340E0AE011
:1004C00003680C2A87BF03F12C0E6FF0400C03F178
:1004D000300E6FF0220C02EB8202DEF80050624414
:1004E0001F230C68934025EA030304FA02F21A431F
:1004F000CEF800200E68D0F800E006EB4605102488
:10050000092E88BF1E3D88BF0C245EF804200723F7
:100510008968AB409A43A94011434EF8041026F075
:1005200001014FF0000C10294FF0000132D142F2CE
:100530000041C4F201018E4505D0816A41F02001DD
:100540008162012126E08968090222D4DEF80810C0
:10055000102E41F40001CEF808101AD140F200012B
:10056000C2F2000109684DF68362C4F21B32A1FB9E
:100570000212910C01EB810149000091009941B1F7
:10058000009901390091009900294FF00001F7D13D
:1005900000E0002180F824C0084601B070BD0000D2
:1005A000002804BF012070472DE9F0418046044631
:1005B00058F8280F30B90020E06284F82400204663
:1005C00000F08EF82046FFF733FFA26AA16A0028E8
:1005D00008BF12F0100206D041F010010120C8F847
:1005E0000010BDE8F08141F2021291430231A16294
:1005F000D4E90013E66981F08045A26885F49E3550
:1006000086F440272F4308BF4FF4002646EA03072D
:10061000531EB3FA83F35E091346B2F5807F18BF09
:100620003302267D257B012E47EA450C13D145B1C7
:10063000A76A47F02007A762E76A47F00107E76269
:1006400009E0A7694EF20006CFF6FF7606EB4737C2
:100650003B4343F400634F68B2F5807F27F469475A
:1006600043EA07034B608B684FF2FD77CFF6E177E3
:1006700003EA070343EA0C038B6001D0012A06D189
:1006800022690023CFF6F07303EB025200E0002250
:10069000CB6A23F470031A43CA62896840F6FE628B
:1006A000CFF61F721140614509D10021E162A16AB4
:1006B000012262F30101C8F80010BDE8F081A06AD0
:1006C00040F0100020F00200A06254F82C0F40F01F
:1006D00001010120A046C8F80010BDE8F08100002B
:1006E00080B586B0014640F60000C4F201000968FA
:1006F00000F5E05291424FF00001CDE90411CDE93F
:10070000021101D006B080BD41F21801C4F202010D
:100710000A6842F400720A600A6802F400720192E8
:10072000019A0A6842F004020A60096801F00401B3
:1007300001910199C02102910321039102A900F0C6
:100740007DFA06B080BD000080B590F82110022926
:1007500027D1026840F2444C1368C4F2020C23F023
:100760000E0313601368ACF571718A4223F0010126
:1007700011601AD940F20841C4F202018A424DD0F8
:1007800040F21C41C4F202018A424BD040F2304197
:10079000C4F202018A4249D14FF480734CF8403CC4
:1007A00078E004218163012080BD6B21C4F2020145
:1007B0008A424FF0010316DC2F21C4F202018A4263
:1007C0003DDD3021C4F202018A4224D04421C4F22A
:1007D00002018A424CD05821C4F202018A424DD112
:1007E0004FF4803350E040F20741C4F202018A42E4
:1007F00031DD40F20841C4F202018A4244D040F2A5
:100800001C41C4F202018A4223D040F23041C4F2BA
:1008100002018A4232D14FF4807335E001234CF853
:10082000403C37E010234CF8403C33E04FF4803339
:10083000624508BF4FF480534CF8403C2AE0082141
:10084000C4F202018A421FD01C21C4F202018A4272
:1008500014D1102318E06C21C4F202018A420AD09C
:100860008021C4F202018A4208D14FF080730BE06C
:100870004FF4805308E04FF4801305E04FF48033C9
:10088000624508BF4FF480534FF6C031CFF6FF7179
:100890004CF80130416B4FF48072028401B18847FB
:1008A000002080BD10B50168D0E90FCEDCF8002033
:1008B0000B685C072ED5042404FA0EF4144029D0EA
:1008C0000A68920603D40A6822F004020A6040F221
:1008D0004441C4F202010268A1F571739A424DD9F4
:1008E00040F20843C4F202039A4200F0BF8040F293
:1008F0001C43C4F202039A4200F0BC8040F2304331
:10090000C4F202039A4240F0B9804FF4806341F888
:10091000403C2BE19C0752D5022404FA0EF414400B
:100920004DD00A68920606D40A6822F00A020A60CC
:10093000012180F8211040F24441C4F20201026812
:10094000A1F571739A4254D940F20843C4F20203EC
:100950009A4200F0D08040F21C43C4F202039A4253
:1009600000F0CD8040F23043C4F202039A4240F0DE
:10097000CA804FF4007341F8403C0EE16B23C4F28F
:1009800002039A424FF0040354DC2F24C4F2020401
:10099000A24240F397803023C4F202039A4262D00D
:1009A0004423C4F202039A4200F0CF805823C4F2D9
:1009B00002039A4240F0CF804FF48023D1E01B071E
:1009C00058BF10BD082303FA0EF31A4010D00A686E
:1009D00022F00E020A60012101FA0EF2CCF8042086
:1009E0008163016B4FF480720029028418BF88472D
:1009F00010BD6B23C4F202039A424FF0020346DC9F
:100A00002F24C4F20204A24240F386803023C4F2B1
:100A100002039A4253D04423C4F202039A4200F0E4
:100A2000AB805823C4F202039A4240F0AB804FF4EB
:100A30000033ADE040F20744C4F20204A2424DDDAF
:100A400040F20844C4F20204A24200F08A8040F25C
:100A50001C43C4F202039A423ED040F23043C4F237
:100A600002039A4277D14FF480637AE0042341F87D
:100A7000403C7BE0402341F8403C77E04FF480234A
:100A80008A4208BF4FF4804341F8403C6EE040F298
:100A90000744C4F20204A2424ADD40F20844C4F210
:100AA0000204A24274D040F21C43C4F202039A42F0
:100AB0003CD040F23043C4F202039A4262D14FF478
:100AC000007365E00824C4F20204A24249D01C234A
:100AD000C4F202039A423ED1402342E06C23C4F2A6
:100AE00002039A4234D08023C4F202039A4232D1E4
:100AF0004FF0806335E0022341F8403C4DE0202375
:100B000041F8403C49E04FF400338A4208BF4FF4BB
:100B1000005341F8403C40E00824C4F20204A242E1
:100B200036D01C23C4F202039A422BD120232FE09B
:100B30006C23C4F202039A4221D08023C4F2020340
:100B40009A421FD14FF0007322E04FF4804308E037
:100B50004FF4800305E04FF480238A4208BF4FF42E
:100B600080434FF6C032CFF6FF728B50C16A002926
:100B70003FF43EAF884710BD4FF4005308E04FF4F8
:100B8000001305E04FF400338A4208BF4FF40053CE
:100B90004FF6C032CFF6FF728B50816A00220029D7
:100BA00080F820203FF424AF884710BD002804BF00
:100BB000012070472DE9F04140F2000CC4F2020C14
:100BC00001684FF6F8320CF58163CBF6FD7299425D
:100BD00038BF02F580624CF6CD430A44CCF6CC43D4
:100BE000A2FB03236FF003050CF5806405EA930371
:100BF000D0E9012ED0F80C803CBF0024C4F20204DE
:100C0000C0E90F430B6843F6F075AB431A43D0E9D4
:100C1000045442EA0E0242EA0802D0E906672A4377
:100C2000224332433A430A6000214FF480728163C9
:100C30000284BDE8F0410846704700002DE9F04FFE
:100C400083B00C68002C00F0EA80A0F18042A2F58D
:100C5000843240F2004E4FEAB22241F60047C4F21D
:100C6000010E0092C4F20107062200254FF001098F
:100C70004FF0000B4FF0000AB84208BF0522019266
:100C800009E000BF0C680BF1010B34FA0BF205F11F
:100C9000040500F0C48009FA0BF814EA080CF1D03E
:100CA0004C684FF6FF72C1F21002944210DC122C15
:100CB00050D8DFE804F0330A41454F4F4F4F4F4FB4
:100CC0004F4F4F4F4F4F4F484C00D1F80CA041E0D1
:100CD0004FF6FF72C1F2210294420FDC0022C1F2F2
:100CE000110294421AD00022C1F21202944215D08D
:100CF0000022C1F22102944210D02BE00022C1F266
:100D0000220294420AD00022C1F23102944205D05C
:100D10000022C1F2320294421CD100BF8C6844B15F
:100D2000012C14BFC0F81480C0F810804FF0080ADE
:100D300010E04FF0040A0DE0CC6804F1080A09E065
:100D40004FF0000A06E0CC6804F1040A02E0CC6827
:100D500004F10C0A2C460746BCF5807F24BF203CDA
:100D600004373A680F2303FA04F6B2430AFA04F48C
:100D700022433A60CA79D2067FF584AF41F2180463
:100D8000C4F2020422684FF6084842F001022260D1
:100D90002268CFF6FF7802F001020292029A2BF04D
:100DA0000302724452F8084005F00C0603FA06F7F5
:100DB000009BBC43019F052B38BF1F4607FA06F670
:100DC000344342F808404C68E203DEF8002054BF88
:100DD00022EA0C0742EA0C07A203CEF80070DEF804
:100DE000042054BF22EA0C0742EA0C07E202CEF8C4
:100DF0000470DEF8082054BF22EA0C0742EA0C0710
:100E0000A20240F20C44CEF80870C4F20104226839
:100E100054BF22EA0C0242EA0C02226032E703B01D
:100E2000BDE8F08FC26814230A4208BF1023C150E6
:100E300070470000002A08BF0904016170470000E4
:100E400040F6A000C2F200000068704780B542F290
:100E50000000C4F20200016841F0100101600320AB
:100E600000F066F8002000F005F800F02BF80020F4
:100E700080BD0000B0B540F20802C2F2000240F2AC
:100E800000011278C2F200014FF47A730968B3FBD3
:100E9000F2F20446B1FBF2F1084600F071FB0F2CB0
:100EA0004FF001050CD858B94FF0FF302146002211
:100EB000002500F02DF840F20C00C2F200000460A2
:100EC0002846B0BD82B041F21800C4F202000168A9
:100ED000022241F001010160016801F0010101916C
:100EE0000199416841F080514160406800F08050B4
:100EF000009000980420C4F20100016862F31A61B6
:100F0000016002B07047000080B500F0C9FE80BDEE
:100F100070B514460D46064600F0D2FE294622461C
:100F200000F044FD0146304600F0D2FE70BD0000E6
:100F300080B500F0DFFE80BD2DE9F04182B00446AF
:100F4000007841F21C06C007C4F202064ED0306899
:100F5000C0000BD430684FF0010840F08050306082
:100F6000306800F080500190019801E04FF00008D7
:100F700047F20007C4F200073868C00512D4386889
:100F800040F480703860FFF75BFF05463868C005A5
:100F900008D4FFF755FF401B6428F7D9032002B09F
:100FA000BDE8F081706810F4407012D0616801F4FF
:100FB000407188420DD0706840F24042C4F2422233
:100FC000012320F4407113600023C0071360716097
:100FD00029D17068616820F440700843B8F1000FAF
:100FE000706003D0306820F0805030602068810746
:100FF00007D556F8181CA26821F44041114346F861
:10100000181CC00603D4002002B0BDE8F08156F8D9
:10101000180C616920F48000084346F8180C002081
:1010200002B0BDE8F081FFF70BFF054641F28837BB
:1010300070688007CDD4FFF703FF401BB8424FF024
:101040000300F5D9ECE700002DE9F04381B000285A
:1010500000F0878042F20008C4F202080446D8F883
:1010600000000D4600F0070088420CD2D8F80000BE
:1010700020F007002843C8F80000D8F8000000F06E
:101080000700A8426DD1206841F204098107C4F22B
:10109000020917D5410705D5D9F8001041F4E061E0
:1010A000C9F80010010705D5D9F8001041F46051C6
:1010B000C9F80010D9F80010A26821F0F00111431E
:1010C000C9F80010C00745D1D8F8000000F00700AB
:1010D000A8420CD9D8F8000020F007002843C8F82F
:1010E0000000D8F8000000F00700A84239D12068BD
:1010F000410707D5D9F80010E26821F4E0611143F7
:10110000C9F80010000708D5D9F80000216920F4BB
:10111000605040EAC100C9F8000000F077F8D9F843
:10112000001042F61A42C1F30311C0F60002515CEE
:1011300040F2000220FA01F140F20C00C2F200007D
:101140000068C2F200021160FFF794FE002001B0B7
:10115000BDE8F0836068012807D159F8041C8903B1
:101160000CD4012001B0BDE8F08359F8041C02281A
:1011700002D18901F5D501E08907F2D5D9F800102F
:1011800021F003010843C9F80000FFF759FE0646A5
:1011900041F28837D9F80000616800F00C00B0EB2C
:1011A000810F91D0FFF74CFE801BB842F2D903208B
:1011B00001B0BDE8F083000040F20000C2F2000080
:1011C0000068704780B5FFF7F7FF41F20401C4F2F1
:1011D0000201096842F62A42C1F30221C0F6000268
:1011E000515CC84080BD000080B5FFF7E5FF41F2CB
:1011F0000401C4F20201096842F62A42C1F3C22185
:10120000C0F60002515CC84080BD000041F2040CF1
:10121000C4F2020CDCF8003003F00C00082841F2A4
:101220000020C0F27A0018BF7047C3F383420AA1BE
:101230008A5CD90305D440F60010C0F23D0050434B
:101240007047DCF8001008A3C1F34041595C5043DB
:10125000B0FBF1F0704700BF020304050607080960
:101260000A0B0C0D0E0F1010010200002DE9F041C9
:1012700082B0002800F0C4800446007841F20006E5
:10128000C007C4F2020643D0706800F00C000428C6
:1012900017D0706800F00C00082802D17068C003F5
:1012A0000FD465689DB1B5F5803F06D03068B5F5BF
:1012B000A02F0DD140F480203060306840F48030A1
:1012C0000CE03068800323D5606808BB98E0306884
:1012D00020F480303060306820F480203060FFF7E8
:1012E000AFFD002D054610D03068800310D4FFF705
:1012F000A7FD401B6428F7D908E100BFFFF7A0FD58
:10130000401B64284FF0030077D830688003F5D481
:101310002078800718D5706810F00C0F07D070681F
:1013200000F00C00082826D17068C00323D4306870
:10133000800702D52069012862D13068616920F0F8
:10134000F80040EAC1003060207800073DD5A06970
:1013500038B30020C4F242200121C0F88014FFF706
:101360006FFD0546706A80072DD4FFF769FD401BAD
:101370000228F7D9CAE02069002840F20000C4F230
:10138000422000F09A8001210160FFF759FD0546D7
:1013900030688007D1D4FFF753FD401B0228F7D9EE
:1013A000B4E00020C4F242200021C0F88014FFF70E
:1013B00047FD0546706A800707D5FFF741FD401BD2
:1013C0000228F7D9A2E000F007FB207840071BD4E1
:1013D000E5698DB1706800F00C0008284CD1012D32
:1013E0000ED07068216A00F480328A4208D1616AA6
:1013F00000F47010884203D1002002B0BDE8F081F3
:10140000012002B0BDE8F081F069C0000BD4F069A2
:101410004FF0010840F08050F061F06900F080501A
:101420000190019801E04FF0000847F20007C4F274
:1014300000073868C00510D4386840F48070386000
:10144000FFF7FEFC054600BF3868C00505D4FFF76E
:10145000F7FC401B6428F7D958E0E568002D3DD023
:10146000012D05D0306A052D39D140F004003062DD
:10147000306A40F0010038E00027C4F24227002023
:101480003866FFF7DDFC022D05460BD13068800180
:1014900054D5FFF7D5FC401B02284FF00300F5D9C7
:1014A000ABE700BF30688001A6D5FFF7C9FC401B41
:1014B00002284FF00300F5D99FE700210160FFF7F4
:1014C000BFFC0546306880077FF53EAFFFF7B8FCEC
:1014D000401B02284FF00300F4D98EE7306A20F059
:1014E00001003062306A20F004003062FFF7A8FC8F
:1014F000002D054641F2883714D000BF306A8007BE
:1015000013D4FFF79DFC401BB842F7D9032002B06B
:10151000BDE8F081FFF794FC401BB8424FF0030098
:101520003FF66BAF306A8007F4D4B8F1000F3FF498
:101530004FAFF06920F08050F06149E7206AB0F5C4
:10154000803F05D17168A26821F4003111437160B8
:101550007168626A21F474111043084370600120BD
:101560003866FFF76DFC0446306880013FF544AFF4
:10157000FFF766FC001B02284FF00300F4D93CE79C
:1015800080B500F041FA80BD7047000010B50268D8
:1015900004461068D168536900F02F02202A06D152
:1015A00011F0200203D0204600F0BEFA10BD5FEA21
:1015B000007C1EBF03F0010301F4907212EB0302E2
:1015C0000DD10840010606D4400658BF10BD204684
:1015D00000F09EFA10BD204600F02CFB10BDC207A3
:1015E00018BF11F4807202D1420706D40AE0E26B00
:1015F00042F00102E263420704D51BB1E26B42F004
:101600000202E263820704D51BB1E26B42F00402DE
:10161000E263BCF1000F04D51BB1E26B42F008029B
:10162000E263E26B002AD5D00840800602D520464E
:1016300000F07AFA20684069E16B00F0400001F0A8
:10164000080140181DD0204600F054FA2068416976
:10165000490612D5416921F040014161606B60B1DA
:1016600041F6E521C0F600014163FFF76DF800285F
:10167000B0D0606B416B884710BD2046FFF784FFF8
:1016800010BD2046FFF780FF0020E06310BD000082
:10169000002804BF0120704710B5044690F83900B7
:1016A00028B9002084F83800204600F021F82420D2
:1016B00084F839002068C16821F40051C1602046D7
:1016C00000F070FA2068016921F4904101614169DC
:1016D00021F02A014161C16841F40051C16000203C
:1016E0002021E06384F8391084F83A1010BD00001E
:1016F0002DE9F04186B0002740F600050597CDE9B9
:1017000003770446C4F20105006805F5405188429C
:10171000029702D006B0BDE8F08141F21806C4F28B
:10172000020630680DF1080840F4804030603068EF
:10173000414600F4804001900198306840F0040078
:101740003060306800F00400019001984FF40070A0
:10175000029002200390032005902846FFF76EFABE
:101760004FF48060CDE90207284641460497FFF711
:1017700065FA40F28865A6F57C60C2F2000580211A
:101780002022C5E900072846C5E90271C5E90477AA
:10179000C5E90627FFF70AFA002818BFFEF778FE0A
:1017A00025200021002265636C62FFF7B1FB252034
:1017B000FFF7AAFB06B0BDE8F0810000704700000B
:1017C00070470000FEE70000B0B584B040F25860FA
:1017D00042F200410024C2F20000C4F201014FF4C1
:1017E000602201250394CDE9014404730475C261AC
:1017F000C0E9001484600561FEF7D2FE002818BF1E
:10180000FEF746FE0620CDE9010540F25860C2F21F
:10181000000001A90394FEF73DFE002818BFFEF763
:1018200037FE04B0B0BD000080B582B041F21400B4
:10183000C4F202000168002241F001010160006869
:10184000002100F00100019001980F20FFF760FBDC
:101850000F20FFF759FB02B080BD00002DE9F04FCB
:1018600085B0002441F21800CDE90344CDE90144DC
:10187000C4F20200016840F6000841F01001016066
:101880000168C4F2010801F010010091009901689B
:1018900008F5006541F0040101600168002201F0D3
:1018A00004010091009901680F2641F008010160D0
:1018B000016801F0080100910099016841F02001E0
:1018C000016000680F2100F0200000900098284679
:1018D000FFF7B0FA404633210022FFF7ABFA08F5D4
:1018E0008067384647F2F801002247F2F80AFFF70E
:1018F000A1FA019601AE4FF001094FF0020B284604
:101900003146CDE90294CDF810B0FFF797F940F2D7
:101910003310CDE9010940463146CDE9034BFFF7CD
:101920008DF90C20CDE90104404631460394FFF7C0
:1019300085F938463146CDE901A9CDE9034BFFF7DA
:101940007DF94FF4C05001A981E8110228463146C3
:10195000FFF774F9042001A981E8110208F540603D
:101960003146FFF76BF905B0BDE8F08F80B540F266
:10197000CC6043F60001C2F20000C4F20101002372
:101980004FF00C0C4FF4165280E80E00C0E9033300
:10199000C0E905C3C361FFF77BFE002818BFFEF74F
:1019A00077FD80BDFEE700007047000000F00700F3
:1019B00080F00703042B28BF04234FF0FF3C0338BB
:1019C0000CFA03F338BF0020994381400CFA00F071
:1019D00022EA00000843704781B040F20000C2F2E2
:1019E0000000006844F6D351C1F26201A0FB01017E
:1019F000480A009000BF0098411E00280091F9D1CC
:101A000001B0704770470000B0B501380024B4EB56
:101A1000106F1CBF0120B0BD4EF21005CEF20005C4
:101A200068604FF0FF300F2100F052F90720AC60E2
:101A300028602046B0BD000070B596B00CAC2046C2
:101A40002821FEF7D8FC0120109010200025022646
:101A5000119020460B95CDE90955CDE90755CDE903
:101A60000555CDE90355CDE901550C961395FFF7C2
:101A7000FDFB0F20CDE9070507A80021CDE9095599
:101A80000B95FFF7E1FA01A801960395FFF754FAC9
:101A900016B070BD41F20000C4F2020001680022DD
:101AA00041F0010101604168CFF6FF021140416041
:101AB00001684FF6FF72CFF6F662114001600168CF
:101AC00021F480210160416821F4FE0141604FF45E
:101AD0001F0181604EF60850CEF200004FF0006109
:101AE0000160704780B5406A0021C185C184FFF75D
:101AF0004BFD80BD0168CA6822F49072CA604A69D1
:101B000022F001024A61202180F83A10704700005B
:101B100080B50168CA6822F04002CA60202180F8BE
:101B20003910FFF74DFE80BD80B590F83A1022299C
:101B300037D18168B1F5805F09D102680369816A94
:101B4000526883B1836AD2B20A80591C10E00168DE
:101B500002694968002A826A18BF01F07F01531C9C
:101B60008362117005E0836A6FF35F220A80991C1B
:101B70008162C18D01390A04C18518BF80BD016829
:101B8000CA6822F02002CA60CA6822F48072CA6061
:101B90004A6922F001024A61202180F83A10FFF7D9
:101BA0000DFE80BD10B504460068D4E902C2236969
:101BB000016921F4405111430161616943EA0C025A
:101BC0001143C26841F20C639A431143C1604169F9
:101BD000A26921F44071114343F60002C4F20102EC
:101BE0009042416102D0FFF7EDFA01E0FFF7FCFA05
:101BF0006268192148439100B0FBF1F048F21F518F
:101C0000C5F2EB11A0FB01235A096FF0630302FB3D
:101C10000300322303EB0010A0FB0101F02303EAD1
:101C20005113206803EB0212C1F343111144816088
:101C300010BD000090F83910212926D18268016A70
:101C4000B2F5805F0DD10A880369D0F800C06FF348
:101C50005F22002BCCF8042014BF01310231016255
:101C600004E04A1C0262097802685160C18C0139A3
:101C70000A04C18418BF70470068C16821F0800160
:101C8000C160C16841F04001C160704780B540F259
:101C9000CC60C2F20000FFF779FC80BDFEE70000D7
:101CA000002848BF704700F01F01012202FA01F12D
:101CB0004EF200124009CEF2000242F820107047A6
:101CC0004EF60C50CEF200000068C0F302207047C0
:101CD0004EF6145300F00F02CEF2000309011A442D
:101CE00000F16043B0F1FF3FC8BF03F564421170DB
:101CF000704700004EF60C51CEF200010A684FF614
:101D0000FF031A4060F30A2242F0806040F0FD7049
:101D10000860704780B500F0FDF800F029FC40F243
:101D20004400C2F200000021016040F24000C2F213
:101D30000000016040F23C00C2F20000016040F28D
:101D40003800C2F20000016040F22800C2F2000038
:101D5000016040F22400C2F20000016040F2140071
:101D6000C2F20000016040F21000C2F20000016007
:101D700040F22000C2F20000016040F21C00C2F2FA
:101D80000000016040F23400C2F20000016040F245
:101D90003000C2F20000016080BD000010B540F2CA
:101DA0000404C2F20004206810F10F3F0DD04FF080
:101DB000F0302060FEF7ECF9FFF7ACFF40F2600076
:101DC000C2F200000168013101604FF0F030206084
:101DD00040F22C00C2F20000006800F0C9FE0020B2
:101DE0002060FEF715FA10BD2DE9F04F81B00DF11E
:101DF000280B9BE8200A16460F46DDF838A004465B
:101E000028464946EF229846FEF7EEFA2046B421CE
:101E1000FEF7F1FA09EB05010139C4E91168C4E9DB
:101E20000A7BC4E903510D992020C4E9059AC4F83E
:101E30001CA0E163C4E925B1C4F89C000320206321
:101E400042F29940C0F6000041F69571C4E91504CC
:101E5000C0F600012046FEF733FA45F24421C5F2F0
:101E60004841EFF3108072B6216040F24801C2F29F
:101E700000010A6840F24C03C2F200034AB11B6839
:101E8000D3F88C70C3F88C40C7F88840C4E9223777
:101E900002E01C60C4E9224401320A6040F26001A1
:101EA000C2F200010F9B0A68012B02F101020A60D5
:101EB00014D140F20401C2F200010968EFF3058277
:101EC0001143B1F1F03F16D340F25401C2F20001C8
:101ED0000D6885B1E96AEE6BE9630EE080F3108866
:101EE000EFF3108072B60A68013A0A6080F3108836
:101EF00000F0D0F809E00025002680F31088204685
:101F000000F0EEF8002D18BFEE63002001B0BDE830
:101F1000F08F000010B540F25000C2F20000002423
:101F2000046040F25400C2F20000046040F2E80095
:101F3000C2F20000046040F26400C2F200000460DB
:101F400040F25800C2F200002021016040F2680017
:101F5000C2F200008021FEF74EFA40F24C00C2F2BD
:101F60000000046040F24800C2F20000046040F249
:101F70006000C2F2000040F218010460C2F20001E9
:101F800040F25C000A68C2F20000046042F0807017
:101F9000086010BD10B540F25000C2F200000468A5
:101FA000EFF3108072B6D4F8AC2080F3108812B131
:101FB000204600219047D4E91110884740F25C0088
:101FC000C2F20000016809B1204688470121EFF301
:101FD000108072B62163A1630021E16440F26001C8
:101FE000C2F20001D4F8AC200B6803F101030B60CE
:101FF00080F3108812B1204601219047204600F05E
:1020000017F910BD10B540F25002EFF3108172B60F
:10201000C2F20002146864B140F20402C2F200028B
:102020001268EFF305831A4307D081F31088132059
:1020300010BD81F31088132010BD40F2A012C2F22F
:10204000000294420AD068B140F26002C2F200027B
:1020500013685BB181F31088132010BD81F31088E1
:10206000132010BD81F31088002010BD04232363CA
:102070000123A3630023C4F88430E06410680130B6
:10208000106081F31088204600F0D2F8D4F8840064
:1020900010BD000040F26000C2F20000006800B114
:1020A000704740F2500040F25401C2F20000C2F208
:1020B0000001006809688842F2D04EF60450CEF262
:1020C00000004FF080510160EFF30580002818BF39
:1020D0007047EFF3108062B680F3108870470000FD
:1020E000F0B581B0EFF3108572B60446406E00285B
:1020F00004F14C0002D000F0F1FA01E0002101608F
:1021000040F26000C2F20000016801390160A16B79
:10211000226B002940F25401C2F2000108D0013ABA
:10212000022A0CD3626B32B90022A263226306E05A
:102130002AB1626B1AB3002203232363626340F265
:102140005002C2F20002126885F3108809688A42C0
:1021500001D0006808B101B0F0BD4EF60450CEF2D7
:1021600000004FF080510160EFF305800028F2D1AC
:10217000EFF3108062B680F3108801B0F0BDE26A20
:1021800040F2680CC2F2000C5CF822304FF0000EF6
:10219000C4F830E02BB15A6A5C621462C4E90832B8
:1021A000CDE74CF8224040F2E80E40F2580CC2F263
:1021B000000EC2F2000C0123DEF80060DCF80070B3
:1021C00093403343BA42C4E90844CEF80030B6D253
:1021D0000B68CCF8002043B3D3F83CC06245AED2C4
:1021E000DA6A944509D040F26407C2F2000701237D
:1021F0003E6803FA02F232433A600C6085F31088BD
:1022000000680028A7D14EF60450CEF200004FF02F
:1022100080510160EFF3058000289CD1EFF310801E
:1022200062B680F3108801B0F0BD0C6087E7000053
:10223000F0B581B0044640F25000C2F200000668DA
:10224000EFF3108572B6A6420DD1204650F84C1F10
:102250000131022928BF00F013FAE06940F254610D
:10226000C2F20001086040F26000C2F200000168A2
:1022700040F2540C01390160A16BC2F2000C01293B
:102280004CD1236AE26A0021A342A1631AD0616A99
:1022900059620B6240F26801C2F2000151F82270EB
:1022A000A74237D140F2640EC2F2000EDEF8007091
:1022B00041F8223077B30121914027EA0101CEF89D
:1022C000001027E040F26803C2F2000343F8221036
:1022D000012101FA02F340F2E80140F2640EC2F279
:1022E0000001C2F2000E0A68DEF800709A43002F67
:1022F0000A601EBFD9433940CEF80010002A00F012
:10230000718092FAA2F140F25802C2F20002B1FAD0
:1023100081F11160DCF80010A1421BD085F3108818
:10232000DCF800108E4201D0006808B101B0F0BDA9
:102330004EF60450CEF200004FF080510160EFF3F2
:1023400005800028F2D1EFF3108062B680F3108888
:1023500001B0F0BD40F25803C2F2000340F2640243
:10236000196840F26806C2F20002C2F2000617685D
:1023700056F82110CCF80010EFB10168013101606E
:1023800085F31088EFF3108572B60168013901609A
:10239000116891FAA1F1B1FA81F456F824101B6882
:1023A000CF6BBB4207D3CCF8001001211368A140CA
:1023B00023EA0101116085F3108800680028B5D177
:1023C0004EF60450CEF200004FF080510160EFF362
:1023D00005800028AAD1EFF3108062B680F3108840
:1023E00001B0F0BD40F25801C2F2000120220A60A3
:1023F0000021CCF8001085F31088006800287FF4D5
:1024000095AF4EF60450CEF200004FF080510160BF
:10241000EFF3058000287FF489AFEFF3108062B6F8
:1024200080F3108801B0F0BD40F25000C2F200000D
:10243000016840F20012EFF3108072B6C2F200029F
:102440000023136009B10A6B12B180F31088704742
:10245000D1E9073240F2546CC2F2000C8A428B611F
:10246000CCF80030F1D0CB6AC96B8B42EDD140F291
:10247000580140F2680CC2F20001C2F2000C096877
:102480004CF823205CF8211040F25402C2F2000202
:10249000116080F31088704780B5EFF3108272B638
:1024A000016B04290BD140F26001C2F200010B68FC
:1024B00001330B6082F31088FFF712FE80BD836E3C
:1024C000D0F8B01082F31088002B18BF984780BD59
:1024D0002DE9F0470F46DDF82880DDE908A92C2119
:1024E0001D4616460446FDF786FF44F64D1120466C
:1024F000C4F25411676040F808AFC4E903966561FF
:10250000EFF3108572B6216040F2F001C2F20001D3
:102510000A6840F2F403C2F2000332B11B689F6AFA
:102520009C627C62C4E9093702E01C60C4E909448A
:102530000132B8F1010F0A6008BF00F0A1F885F37D
:1025400010880020BDE8F08780B540F26001EFF30D
:10255000108072B6C2F200010A6801320A6080F38C
:10256000108840F2A010C2F20000FFF7B9FD80BD54
:102570002DE9F04F87B040F29C10C2F20000002419
:10258000046040F25460C2F20000046040F20010A7
:10259000C2F20000046040F2FC00C2F200000460DD
:1025A00040F2041040F20815C2F20000C2F2000529
:1025B000046028468021FDF71EFF40F28C10C2F215
:1025C0000000056040F2F800C2F2000040F28811FD
:1025D000056005F18000C2F20001086040F2981920
:1025E00040F25420C2F20009C2F2000040F2941AF4
:1025F00040F2901B40F2A01842F20D7644F64D17BF
:10260000C9F80000C2F2000A4FF48060C2F2000B69
:10261000C2F2000815A5C0F60006C4F25417CAF8A5
:102620000000CBF8004000BFD9F80000DBF8002024
:10263000DAF800108DE80700CDE90324404629466A
:1026400032463B460594FFF7CFFB0028ECD140F221
:10265000F400C2F200000021016040F2F000C2F27A
:102660000000016007B0BDE8F08F00BF53797374BC
:10267000656D2054696D65722054687265616400EF
:1026800001684A1C022A27D38269002A18BF7047B2
:102690004A1E202940F2F801C2F20001096888BFF1
:1026A0001F2201EB820140F28812C2F2000212687E
:1026B00040F28C13C2F200038A1A1B6828BF9918D3
:1026C0000A682AB1536950611861C0E9042302E025
:1026D000C0E9040008608161704700008169002939
:1026E00008BF70470269824207D0436953611A618B
:1026F0000B68834206D1916103E00A68824201D1EE
:1027000000220A6000218161704700002DE9F04F2E
:1027100083B044F64D11C4F2541188421CBF03B07B
:10272000BDE8F08F40F2F80340F2FC0640F20419D5
:102730000027C2F20003C2F200060DF1040AC2F241
:1027400000090DF1080800250AE000BF21682646AF
:1027500000296BD083F3108840F2F803C2F2000323
:10276000EFF3108072B619680A68002A029218BF47
:10277000C2F818800F6040F288121968C2F2000295
:10278000126804319142196005D140F28C11C2F2F5
:102790000001096819603760344680F31088EFF350
:1027A000108372B605E000BF8BF31088EFF310833F
:1027B00072B6029E002EC9D0316900228E4201926B
:1027C00006D07269C1F818804A61116101E000BF4A
:1027D000002132680291212A08D3A2F12001316040
:1027E000C6F818A03661019600210AE0D6E9012159
:1027F000F568002A32600FBFB761C6F818A03661CD
:102800000196C9F8006083F3108809B1284688470B
:10281000EFF3108B72B60198C9F80070B042C3D1C3
:102820003046B761FFF72CFFBEE700BF40F2A010B3
:10283000C2F2000003210163012140F260028163C2
:10284000C2F2000211680131116083F31088FFF7B2
:10285000EFFC81E72DE9F04F89B0DDF85CA0DDE900
:102860001454DDE9128C074600284FF00E006AD0A0
:10287000189EB42E67D140F26000EFF3108572B657
:10288000C2F20000066840F24C040136066085F38F
:10289000108840F24805C2F20005C2F200042E681A
:1028A000D4F800909B46CDE9071216B30CEB080153
:1028B0002A68013900230024012C18BFB94518D01B
:1028C000D9F80C60B04506D3D9F81050A8453CBFE4
:1028D00001244FF00008B14206D3D9F81060B1428C
:1028E0003CBF4FF0000801240133D9F8889093428F
:1028F000E2D3EFF3108172B60268013A026081F30D
:102900001088FFF7C7FBB9450CD0B8F1000F0BD00A
:10291000089ADDF84CC05B468AB1BCF1C80F24D2DE
:1029200005200DE00E2002E04FF000080320DDE955
:102930000712DDE914545B46DDF84CC003E00320C8
:102940000799DDE9145410B109B0BDE8F08F16986D
:10295000CDE9008CCDE9025404903846CDF814A09E
:10296000FFF742FA09B0BDE8F08F149D1F2D03D97F
:102970000799159C0F20E6E7159C0799AC4201D9F1
:102980001820E0E7BAF1010F01D91020DBE740F28F
:102990005000C2F20000066840F2A01CC2F2000C17
:1029A000664540F2040C4FF00000C2F2000C08BF74
:1029B0001320DCF800E0EFF3058656EA0E06BBD0E4
:1029C000DCF800C0EFF3058646EA0C06B6F1F03FEE
:1029D00038BF1320B0E700002DE9F04784B0DDF8E0
:1029E0003880DDF830909A4615460E460746002896
:1029F0004FF0150043D00F992C2940D140F26000D0
:102A0000EFF3108172B6C2F2000002680132026078
:102A100081F3108840F2F401C2F200010968CA1B78
:102A2000B2FA82F24FEA521413D040F2F002C2F22C
:102A3000000213686BB11268012300BF496ACC1B06
:102A4000B4FA84F44FEA541403D0934203F101031F
:102A5000F4D3EFF3108172B60268013A026081F399
:102A60001088FFF717FB14B1152040BB08E0B9F13F
:102A7000000F36D00020B8F1010F88BF1720F0B941
:102A800040F25000C2F20000016840F2A012C2F20F
:102A90000002914240F204014FF00000C2F2000136
:102AA00008BF13200A68EFF305831A4307D00968AB
:102AB000EFF305821143B1F1F03F38BF132010B19D
:102AC00004B0BDE8F0870D983146CDE90090384656
:102AD0002A465346CDF80880FFF7FAFC04B0BDE85B
:102AE000F08716200028EAD1CAE7000080B540F63A
:102AF0000000C4F201004FF48071FEF793F980BD2D
:102B0000FEF7A4F9FEF798FFFEF7A8FEFEF78CFE8D
:102B1000FEF75AFEFEF72AFFFFF740F9FEE7000036
:102B200084B001206421CDE90011029040F20C70C4
:102B300042F6ED224FF02C0CC2F2000006A1C0F6C6
:102B400000026F23CDF80CC0FFF746FF4FF47A70F8
:102B5000FFF758FAFAE700BF6C65645F74696D654A
:102B6000720000004FF47A70FFF74CFAFAE70000A9
:102B70002DE9F04188B0044603204FF48065CDE98B
:102B80000045CDE9020040F2387042F621324FF0A4
:102B9000B40801260027C2F2000012A1C0F600020C
:102BA00041F23423CDE90476CDF81880FFF752FEC8
:102BB00004F580608DE8610040F2EC7042F6653209
:102BC000C2F200000AA1C0F6000241F23423CDE9AE
:102BD00003670596CDF81880FFF73CFE08B0BDE806
:102BE000F08100BF4D792054687265616420310026
:102BF0004D792054687265616420320002E008C893
:102C0000121F08C1002AFAD170477047002001E066
:102C100001C1121F002AFBD1704700000000000014
:102C20000000010203040607080900000000010279
:102C300003040000582C00080000002010000000D1
:102C4000FC2B0008682C000810000020980C0000E5
:102C50000C2C0008000000000024F400F0F0F0F05C
:082C600001000000100000005B
:0400000508000131BD
:00000001FF
